{
  "transactions": [
    {
      "hash": "0x15eb81ddd47be7c7738518f43dbe3e799b459c79cbb765462233358f2646165f",
      "transactionType": "CALL",
      "contractName": null,
      "contractAddress": "0xa9180e9b60c7f9c7af76ec357c03a3574ae399a9",
      "function": "mintNft(string)",
      "arguments": [
        "ipfs://bafybeig37ioir76s7mg5oobetncojcm3c3hxasyd4rvid4jqhy4gkaheg4/?filename=0-PUG.json"
      ],
      "transaction": {
        "from": "0xba63eaa8bc75d9d9b70b80034d9ded790607822e",
        "to": "0xa9180e9b60c7f9c7af76ec357c03a3574ae399a9",
        "gas": "0x3dbda",
        "value": "0x0",
        "input": "0xda86f4a900000000000000000000000000000000000000000000000000000000000000200000000000000000000000000000000000000000000000000000000000000057697066733a2f2f62616679626569673337696f6972373673376d67356f6f6265746e636f6a636d3363336878617379643472766964346a71687934676b61686567342f3f66696c656e616d653d302d5055472e6a736f6e000000000000000000",
        "nonce": "0xf",
        "chainId": "0xaa36a7"
      },
      "additionalContracts": [],
      "isFixedGasLimit": false
    },
    {
      "hash": "0xd2ce1c222c16f77b5c5303cb8aedb59580f0a6274d26472f65282c540525d1ce",
      "transactionType": "CALL",
      "contractName": null,
      "contractAddress": "0xa9180e9b60c7f9c7af76ec357c03a3574ae399a9",
      "function": "safeTransferFrom(address,address,uint256)",
      "arguments": [
        "0xBA63EAA8bC75D9d9B70B80034d9DeD790607822E",
        "0xD6bdfc73ddDf721Fc757f8559fd3C91Ed43b82e4",
        "1"
      ],
      "transaction": {
        "from": "0xba63eaa8bc75d9d9b70b80034d9ded790607822e",
        "to": "0xa9180e9b60c7f9c7af76ec357c03a3574ae399a9",
        "gas": "0x13b39",
        "value": "0x0",
        "input": "0x42842e0e000000000000000000000000ba63eaa8bc75d9d9b70b80034d9ded790607822e000000000000000000000000d6bdfc73dddf721fc757f8559fd3c91ed43b82e40000000000000000000000000000000000000000000000000000000000000001",
        "nonce": "0x10",
        "chainId": "0xaa36a7"
      },
      "additionalContracts": [],
      "isFixedGasLimit": false
    }
  ],
  "receipts": [
    {
      "status": "0x1",
      "cumulativeGasUsed": "0x12c9d90",
      "logs": [
        {
          "address": "0xa9180e9b60c7f9c7af76ec357c03a3574ae399a9",
          "topics": [
            "0xddf252ad1be2c89b69c2b068fc378daa952ba7f163c4a11628f55a4df523b3ef",
            "0x0000000000000000000000000000000000000000000000000000000000000000",
            "0x000000000000000000000000ba63eaa8bc75d9d9b70b80034d9ded790607822e",
            "0x0000000000000000000000000000000000000000000000000000000000000001"
          ],
          "data": "0x",
          "blockHash": "0x5a2f720bddb4d0c0cc7b630110fffdc15adb873db24355746b2ce5603ccd8f75",
          "blockNumber": "0x8bf52e",
          "blockTimestamp": "0x68c11494",
          "transactionHash": "0x15eb81ddd47be7c7738518f43dbe3e799b459c79cbb765462233358f2646165f",
          "transactionIndex": "0x7c",
          "logIndex": "0xf8",
          "removed": false
        }
      ],
      "logsBloom": "0x00000000000000000000000000000000000000000000000000000000000000000000000000000000000000000000000000000010000000000040000000040000000000000000000000000008000000000000000000040000000000000000000000000000020000000000000000000801000000000000000000000010000000000000000000000000000000000000000000000000000000000000000000000000000000000000000000000000000000000000000000000000000000000000000000008002000000000000000000000040000000000000000000000000000060000100000000000000000000000000000000000000000000000000000000000000",
      "type": "0x2",
      "transactionHash": "0x15eb81ddd47be7c7738518f43dbe3e799b459c79cbb765462233358f2646165f",
      "transactionIndex": "0x7c",
      "blockHash": "0x5a2f720bddb4d0c0cc7b630110fffdc15adb873db24355746b2ce5603ccd8f75",
      "blockNumber": "0x8bf52e",
      "gasUsed": "0x2cb30",
      "effectiveGasPrice": "0x10061a",
      "from": "0xba63eaa8bc75d9d9b70b80034d9ded790607822e",
      "to": "0xa9180e9b60c7f9c7af76ec357c03a3574ae399a9",
      "contractAddress": null
    },
    {
      "status": "0x1",
      "cumulativeGasUsed": "0x12d81c8",
      "logs": [
        {
          "address": "0xa9180e9b60c7f9c7af76ec357c03a3574ae399a9",
          "topics": [
            "0xddf252ad1be2c89b69c2b068fc378daa952ba7f163c4a11628f55a4df523b3ef",
            "0x000000000000000000000000ba63eaa8bc75d9d9b70b80034d9ded790607822e",
            "0x000000000000000000000000d6bdfc73dddf721fc757f8559fd3c91ed43b82e4",
            "0x0000000000000000000000000000000000000000000000000000000000000001"
          ],
          "data": "0x",
          "blockHash": "0x5a2f720bddb4d0c0cc7b630110fffdc15adb873db24355746b2ce5603ccd8f75",
          "blockNumber": "0x8bf52e",
          "blockTimestamp": "0x68c11494",
          "transactionHash": "0xd2ce1c222c16f77b5c5303cb8aedb59580f0a6274d26472f65282c540525d1ce",
          "transactionIndex": "0x7d",
          "logIndex": "0xf9",
          "removed": false
        }
      ],
      "logsBloom": "0x00000000000000000000000000000000000000000000000000000000000000000000000000000000000000000000000000000010000000000040000000040000000000000000000000000008000000000000000000040000000000000000000000000000000000000000000000000001000000000000000000000010000000000000000000000000000000000000000000000000000000000000000000000000000000000000000000000000000000000000000000000000000000000800000000008002000000000000000000000040080000000000000000000000000040000100000000000000000000000000000000000000000000000000000000200000",
      "type": "0x2",
      "transactionHash": "0xd2ce1c222c16f77b5c5303cb8aedb59580f0a6274d26472f65282c540525d1ce",
      "transactionIndex": "0x7d",
      "blockHash": "0x5a2f720bddb4d0c0cc7b630110fffdc15adb873db24355746b2ce5603ccd8f75",
      "blockNumber": "0x8bf52e",
      "gasUsed": "0xe438",
      "effectiveGasPrice": "0x10061a",
      "from": "0xba63eaa8bc75d9d9b70b80034d9ded790607822e",
      "to": "0xa9180e9b60c7f9c7af76ec357c03a3574ae399a9",
      "contractAddress": null
    }
  ],
  "libraries": [],
  "pending": [],
  "returns": {},
  "timestamp": 1757484182445,
  "chain": 11155111,
  "commit": "460843c"
}